:100000000C9434000C9451000C9451000C94510049
:100010000C9451000C9451000C9451000C9451001C
:100020000C9451000C9451000C9451000C94870FC7
:100030000C9451000C9451000C9451000C945100FC
:100040000C9451000C9451000C9451000C945100EC
:100050000C9451000C9451000C9451000C945100DC
:100060000C9451000C94510011241FBECFEFD8E026
:10007000DEBFCDBF11E0A0E0B1E0E8E0F0E202C0F9
:1000800005900D92AC30B107D9F727E0ACE0B1E0B4
:1000900001C01D92AF37B207E1F70E94E30F0C9445
:1000A00002100C940000CF92DF92EF92FF921F9308
:1000B000CF93DF936C01162FF42E8AE190E00E941B
:1000C0008A0FEC018FEF209709F456C080910C0144
:1000D00090910D01892B21F5D0930D01C0930C0156
:1000E00084E391E00E949A038DE391E00E949A03D9
:1000F0008BE291E00E949A0382E291E00E949A03CF
:1001000085E191E00E949A038BE291E090932101B6
:100110008093200182E291E090931F0180931E0161
:10012000111111E0198E188E1E8BFF8AFE01C192EB
:10013000D1927F01CF010E94A803CE010C960E94AC
:10014000A803D987C887DB8BCA8B82E090E0811B2C
:1001500091099D878C878E8990911401981710F4CE
:1001600080931401F9E08F9FC0011124B7018C5CCA
:100170009E4F0E94AC0381E0DF91CF911F91FF90D1
:10018000EF90DF90CF9008950F931F93CF93DF935D
:100190008B01C0911201D0911301C80FD91F80911A
:1001A0000C0190910D0102960E94020460910C01D5
:1001B00070910D01FB01D383C28380911201909154
:1001C00013016E5F7F4FC817D907B0F480911E01ED
:1001D00090911F010E94CC030115110591F06091CF
:1001E0000C0170910D01645F7F4FC801DF91CF91C9
:1001F0001F910F910C94CC038091200190912101CB
:10020000E9CFDF91CF911F910F910895FF920F9346
:100210001F93CF93DF9399E0F92E809115018111FF
:1002200044C00E94EC082091100130911101821B02
:10023000930B90930F0180930E0189E0F82E20918B
:100240000E0130910F01809112019091130121153F
:10025000310509F04CC090931101809310018091F9
:100260001401282F30E099E0929FF001939FF00D48
:100270001124EC5CFE4F408141118DC0882369F050
:100280008150282F30E0929FF001939FF00D1124B0
:10029000EC5CFE4F908191117EC080931401DF9140
:1002A000CF911F910F91FF900895F894E0911A015A
:1002B000F0911B01C681D781CE010C960E940204E9
:1002C00078948E010E5F1F4FC8010E9402048E8930
:1002D00090911401981710F4809314018F9DC00120
:1002E0001124B8018C5C9E4F0E94AC0396CF0196FE
:1002F00090931301809312012150310930930F0123
:1003000020930E01892B81F480912001909121018D
:1003100020911E0130911F01309321012093200173
:1003200090931F0180931E01E0912001F091210123
:1003300020911201309113018081882309F47FCF2D
:100340000580F681E02DC681D7818A819B8128179F
:10035000390708F474CFF8948E010E5F1F4FC8015F
:100360000E9402048C899D89892B21F0CE010C9674
:100370000E94020478948E8990911401981710F4C9
:10038000809314018F9DC0011124B8018C5C9E4F95
:100390000E94AC03C9CF8093140149E0429FC00181
:1003A000439F900D1124FC01EC5CFE4FA181B281B2
:1003B00012960D90BC91A02DB283A183895C9E4FB3
:1003C000A817B90729F412968D919C919283818385
:1003D00089E0829FF001839FF00D1124EC5CFE4FB9
:1003E0000180F281E02D8681978190930D018093A9
:1003F0000C01DC01ED91FC91119757966C91DF9106
:10040000CF911F910F91FF9009940F931F93CF935A
:10041000DF93DC011596ED91FC91C681D7818E01A9
:10042000045F1F4FC8010E940204B80185E191E0FA
:100430000E94AC03E0910C01F0910D0181E02E8946
:100440009689291708F480E0DF91CF911F910F91D1
:100450000895CF93DF938BE090E00E948A0FEC0128
:10046000009731F0FC0111921192CF010E949A0382
:10047000CE01DF91CF910895AF92BF92CF92DF92DC
:10048000EF92FF920F931F93CF93DF936C017B0149
:10049000B42EA22E0E94E608F601C081D181CE01C1
:1004A0008E219F21A11040C0892B09F041C0011568
:1004B000110589F060E071E0B11002C070E060E009
:1004C000A11074606E297F29A801C60102960E94BE
:1004D000130BD0E0C0E00E94AA09012BC9F08111E2
:1004E00002C00E94D20E0E94E40B91FD0FC00FB615
:1004F000F8940F92F6018081918197012823392386
:10050000A11023C0232B21F50F900FBEEC01DD2796
:10051000CE01DF91CF911F910F91FF90EF90DF906F
:10052000CF90BF90AF900895E816F90609F0BFCFBD
:10053000BB2041F0C701809590958C239D23F60147
:100540009183808310E000E0C6CFE216F306E1F667
:10055000BB20D1F2E094F094E822F922F601F18276
:10056000E082D2CFFC010FB6F8940F928081918186
:100570006095709568237923718360830F900FBE17
:100580000895FC01808191810895CF92DF92EF92CE
:10059000FF920F931F93CF93DF93EC018B017C01AC
:1005A00085E0E80EF11C0E94E608EF81F88568817D
:1005B0007981602B712B7983688310E000E068817A
:1005C0007981EE15FF0599F4009510950623172300
:1005D000198308830E94AA0988819981DF91CF91AC
:1005E0001F910F91FF90EF90DF90CF900895C28000
:1005F000D38020813181C9019927AC01462357233B
:1006000032FD04C0452B29F4F601D9CF8417950794
:10061000D9F730FF02C0082B192B7260CF010E945E
:10062000750BF2CFAF92BF92CF92DF92EF92FF9213
:100630000F931F93CF93DF937C01EB018A01690134
:100640000E94E608F701A080B180BE01C7010E94A8
:10065000C502CA29DB29CE01802391238017910787
:1006600009F03BC0F7018081918198012095309578
:100670008223932391838083D12CC12C0E94AA09C9
:10068000CD28F9F0811102C00E94D20E0E94E40B25
:1006900091FD15C00FB6F8940F92F70180819181FA
:1006A0009801282339232017310739F4A8014095F0
:1006B000509548235923518340830F900FBEEC017E
:1006C000DD27CE01DF91CF911F910F91FF90EF9029
:1006D000DF90CF90BF90AF900895C114D10451F036
:1006E000A601B8017560C70102960E94130BD0E005
:1006F000C0E0C4CFF701C081D181C0CFCF93DF93D9
:10070000EC010E94E6088A81811107C0CE010E9497
:10071000BF0FDF91CF910C94AA0960E072E08F8146
:1007200098850E94750BEFCFBA010C94C502BA01EF
:100730000C94B202FC010396928381832FEF3FEF6A
:1007400034832383968385839087878310820895DB
:10075000FC01118610860895CF93DF939C01FB0165
:10076000DC011196CD91DC91D383C2838C819D8174
:10077000958384838C819D81DC0113967C936E9399
:1007800012977D836C8331872087F90180818F5F89
:100790008083DF91CF9108950F931F93CF93DF93C1
:1007A0008C01FB0180819181D80113968F3F9807BE
:1007B000F1F4E801AF81B88512968D919C91139761
:1007C00093838283EC01FD83EC83B583A48313962A
:1007D000FC93EE93129711870087F80180818F5F59
:1007E0008083DF91CF911F910F910895D9011296C7
:1007F0002D913C911397E901488159818417950700
:10080000A8F7DACFCF93DF93FC01A085B185828171
:10081000938124813581EC013D832C83E9019B8305
:100820008A8311968D919C9112978E179F0721F4C0
:1008300012963C932E931197118610868C918150BD
:100840008C93DF91CF9108951F93CF93DF93EC01A9
:10085000142F4C8D4423C1F050E011111DC08C8128
:100860009D810E94F90F8C8D2C813D81820F932FE9
:10087000911D9D838C832A813B818217930720F0F1
:10088000888199819D838C838A8D8F5F8A8F80E098
:10089000DF91CF911F9108958E819F810E94F90F62
:1008A0008C8D90E09195819591092E813F81280F43
:1008B000391F3F832E83488159812417350730F42F
:1008C0002A813B81820F931F9F838E831230E1F632
:1008D0008A8D8823C9F28A8D81508A8FD5CFFC01F9
:1008E000CB01448D4423A1F050E026813781240FB1
:1008F000351F37832683628173812617370720F0DF
:100900002081318137832683668177810C94F90FAA
:1009100008950F931F93CF93DF93EC010FB6F894D4
:100920000F928C010F5E1F4F8E8D1816B4F08FEF53
:100930008E8F0F900FBE0FB6F8940F928E01085F46
:100940001F4F8D8D1816B4F08FEF8D8F0F900FBE47
:10095000DF91CF911F910F9108958989882339F3F1
:10096000C8010E94360B81110E94E00B8E8D8150D0
:100970008E8FDACF8885882339F3C8010E94360B21
:1009800081110E94E00B8D8D81508D8FDACFCF9336
:10099000DF93EC010FB6F8940F92288139814C8DCA
:1009A0009B8D499FC0011124F901E80FF91FFB83BA
:1009B000EA831A8E3D832C83841B9109820F931F37
:1009C0009F838E838FEF8D8F8E8F611111C08885ED
:1009D000882341F0CE0108960E94360B813011F435
:1009E0000E94D20E0F900FBE81E0DF91CF9108954B
:1009F000CE0108960E949A03CE0141960E949A0366
:100A0000F1CF0F931F93CF93DF93082F162F90E012
:100A100080E0662321F0069FC001112401964F96C5
:100A20000E948A0FEC01009751F011110EC09983BA
:100A300088830B8F1C8F61E0CE010E94C704CE011A
:100A4000DF91CF911F910F9108954F9699838883DD
:100A5000F0CFAF92BF92CF92DF92FF920F931F938E
:100A6000CF93DF9300D000D00F92CDB7DEB78C01CB
:100A70006B015D834C83F22E80E0580198E0A90E53
:100A8000B11C0FB6F8940F92F801228D938D29179F
:100A900018F0F2E0FF1226C04F2DB601C8010E94E7
:100AA0002404F80191899923D1F0C80141960E944C
:100AB000360B813011F40E94D20E0F900FBE81E0F0
:100AC0000F900F900F900F900F90DF91CF911F918B
:100AD0000F91FF90DF90CF90BF90AF900895882343
:100AE00061F3E9CF2C813D81232B21F40F900FBEC0
:100AF00080E0E6CF811104C0CE0101960E94A90BCF
:100B00000F900FBE0E94E6080FB6F8940F92F801FE
:100B1000858D8F3F09F4158EF801868D8F3F09F47E
:100B2000168E0F900FBEBE016C5F7F4FCE010196F7
:100B30000E94B40B811120C00FB6F8940F92F801F7
:100B4000928D0F900FBE838D981310C06C817D81A4
:100B5000C5010E94F70AC8010E9489040E94AA09DF
:100B6000811102C00E94D20E81E08BCFC8010E9489
:100B700089040E94AA09F8CFC8010E9489040E9432
:100B8000AA09B6CF0F931F93CF93DF93EC018A018D
:100B90009A8D8B8D981718F080E02230C1F4422F87
:100BA000CE010E9424048E8D8F3FB1F4898981117A
:100BB00002C081E00CC0CE0141960E94360B882312
:100BC000C1F301151105A9F381E0F8018083DF91DC
:100BD000CF911F910F9108958E8D8F5F8E8FE9CFEA
:100BE000CF93DF93FC01EB01928D838D9817E0F496
:100BF000828D8F5F828F868D8F3F91F481898111E5
:100C000002C081E00AC0CF0141960E94360B8823C2
:100C1000C1F32097B1F381E08883DF91CF910895EC
:100C2000868D8F5F868FEDCF80E0F7CFAF92BF923A
:100C3000DF92EF92FF920F931F93CF93DF9300D039
:100C400000D00F92CDB7DEB78C017B015D834C8362
:100C5000D22E80E0580191E1A90EB11C0FB6F89494
:100C60000F92F801928D9923A9F1A680B780B70160
:100C7000C8010E946F04F801D11020C0828D8150FC
:100C8000828F8085882341F0C80108960E94360B28
:100C9000813011F40E94D20E0F900FBE81E00F90B0
:100CA0000F900F900F900F90DF91CF911F910F91A8
:100CB000FF90EF90DF90BF90AF900895B782A6822B
:100CC0008189882349F3C80141960E94360B882305
:100CD00019F3E0CF2C813D81232B21F40F900FBE1F
:100CE00080E0DDCF811104C0CE0101960E94A90BE6
:100CF0000F900FBE0E94E6080FB6F8940F92F8010D
:100D0000858D8F3F09F4158EF801868D8F3F09F48C
:100D1000168E0F900FBEBE016C5F7F4FCE01019605
:100D20000E94B40B81111FC00FB6F8940F92F80106
:100D3000828D0F900FBE811110C06C817D81C50125
:100D40000E94F70AC8010E9489040E94AA09811121
:100D500002C00E94D20E81E081CFC8010E948904A6
:100D60000E94AA09F8CFC8010E9489040E94AA091A
:100D7000B7CF0F931F93CF93DF93EC018A018A8D36
:100D8000882319F1CE010E946F048A8D81508A8FC9
:100D90008D8D8F3FB1F48885811102C081E00CC038
:100DA000CE0108960E94360B8823C1F30115110568
:100DB000A9F381E0F8018083DF91CF911F910F911A
:100DC00008958D8D8F5F8D8FE9CF80E0F5CF0F93E4
:100DD0001F93CF93DF93EC018A8D882369F00E81F6
:100DE0001F81CE010E946F041F830E8381E0DF917B
:100DF000CF911F910F91089580E0F9CF0FB6F8942D
:100E00000F92FC01828D0F900FBE08950FB6F894DB
:100E10000F92FC01228D0F900FBE838D821B0895CF
:100E2000FC01828D08950C94BF0FFC01928D81E02E
:100E3000911180E00895FC01928D81E0238D2913AA
:100E400080E00895E0916701F0916801808181114F
:100E500007C08FEF9FEF90930101809300010895E9
:100E6000E0916701F09168010580F681E02D068030
:100E7000F781E02D82819381EECFCF93DF93EC0158
:100E8000E0914601F09147019383828380914F0165
:100E9000909150016091460170914701C817D907A0
:100EA00050F480916501909166016E5F7F4FDF91F4
:100EB000CF910C94CC0380916701909168016E5F93
:100EC0007F4F0E94CC038091000190910101C817CF
:100ED000D90720F4D0930101C0930001DF91CF9195
:100EE00008955F926F927F928F929F92AF92BF927E
:100EF000CF92DF92EF92FF920F931F93CF93DF93E6
:100F00004C01162F572E5A013901C114D10439F45E
:100F1000CA010E948A0F6C01892B09F4B7C087E2CD
:100F200090E00E948A0FEC01009709F4ACC0D88EC3
:100F3000CF8A21E0A21AB108CA0CDB1CE12FF52DE3
:100F4000DC0159969F01285F3F4F81918D93882343
:100F500019F0E217F307C9F718A2102F043008F0B0
:100F600013E01E8B5E0182E0A80EB11CC5010E9439
:100F7000A803CE010C960E94A803D987C88784E0F5
:100F800090E0811B91099D878C87DB8BCA8B19A20E
:100F90001AA21BA21CA21EA21DA2A301B401C6017B
:100FA0000E94250E99838883E114F10419F0F7015A
:100FB000D183C0830FB6F8940F92809151018F5F57
:100FC000809351018091460190914701892B09F04E
:100FD0006EC0D0934701C09346018091510181308A
:100FE00061F58BE791E00E949A0384E891E00E940A
:100FF0009A038DE891E00E949A0386E991E00E94AD
:101000009A0382E791E00E949A0389E691E00E94A8
:101010009A038CE591E00E949A0383E591E00E9497
:101020009A0382E791E0909368018093670189E6D3
:1010300091E09093660180936501809149018F5FF3
:10104000809349018E8990914E01981710F48093F6
:101050004E01F9E08F9FC0011124B50185589E4FC4
:101060000E94AC030F900FBE80914D01882349F080
:10107000E0914601F09147018689801710F40E94A3
:10108000D20E81E004C0C6010E94BF0F8FEFDF9136
:10109000CF911F910F91FF90EF90DF90CF90BF9075
:1010A000AF909F908F907F906F905F900895809108
:1010B0004D018111C2CFE0914601F091470186892F
:1010C000081708F4BACFD0934701C0934601B5CFB3
:1010D0000F931F93CF93DF93EC010FB6F8940F9209
:1010E000892B21F4C0914601D09147018E010E5FFA
:1010F0001F4FC8010E9402048C899D89892B21F011
:10110000CE010C960E940204B80183E591E00E9492
:10111000AC03809152018F5F80935201809149010D
:101120008F5F809349010F900FBE80914D018823FE
:1011300049F080914601909147018C179D0739F441
:101140000E94D20EDF91CF911F910F9108950FB69B
:10115000F8940F920E9422070F900FBEF3CFAF9228
:10116000BF92CF92DF92EF92FF920F93B12CA12CFE
:10117000D12CC12CF12CE12C00E030E020E045E541
:1011800050E062E071E087E79AE00E9471078130E9
:1011900081F4F89480934D011092500110924F0108
:1011A0000F91FF90EF90DF90CF90BF90AF900C9495
:1011B000910E0F91FF90EF90DF90CF90BF90AF9086
:1011C0000895F89410924D010C94D10E809148012D
:1011D0008F5F8093480108950FB6F8940F92809125
:1011E0004F01909150010F900FBE089580914F01D3
:1011F000909150010895809151010895CF92DF920E
:10120000EF92FF920F931F93CF93DF93809148014A
:10121000811199C080914F01909150010196909356
:10122000500180934F01E0904F01F0905001E11484
:10123000F104B9F4809167019091680120916501F2
:1012400030916601309368012093670190936601A5
:101250008093650180914A018F5F80934A010E94CB
:1012600022078091000190910101C0E0E816F90683
:10127000E8F4E0914601F0914701E689B9E0EB9F7F
:10128000F0011124E558FE4F8081823008F0C1E062
:1012900080914B018111C1E08C2FDF91CF911F9183
:1012A0000F91FF90EF90DF90CF900895D9E0E091FB
:1012B0006701F09168018081811107C08FEF9FEF76
:1012C0009093010180930001D4CFE0916701F091E8
:1012D00068010580F681E02D06811781D8011296FC
:1012E0008D919C91E816F90658F36801B2E0CB0E97
:1012F000D11CC6010E940204F80184899589892BBA
:1013000021F0C8010C960E940204D80156968C91D7
:1013100090914E01981710F480934E018D9FC0015B
:101320001124B60185589E4F0E94AC03E0914601FE
:10133000F0914701D80156969C918689981708F438
:10134000B6CFC1E0B4CF80914C018F5F80934C0148
:10135000C0E09ECFEF92FF920F931F93CF93DF9346
:101360000FB6F8940F928091480181508093480104
:1013700080914801882359F0C0E00F900FBE8C2F58
:10138000DF91CF911F910F91FF90EF900895809181
:101390005101882389F389E0F82EEE24E3948091AB
:1013A0005C0181110CC080914C01C1E081113BC0F6
:1013B000C0914B01C13001F70E94D20EDECFE09107
:1013C0006101F0916201C681D781CE010C960E9425
:1013D00002048E010E5F1F4FC8010E9402048E8915
:1013E00090914E01981710F480934E018F9DC0018B
:1013F0001124B80185589E4F0E94AC03E09146012C
:10140000F09147019E898689981748F2E0924B0136
:10141000C6CF0E94FE088111C0934B0180914C0100
:10142000815080934C0180914C018111F2CFC0CF4B
:101430000F931F93CF93DF938C01EB010E94E6087B
:1014400020914F0130915001F80180819181C80FA6
:10145000D91F28173907B0F4C817D90768F0D18306
:10146000C0830E94AA09811102C00E94D20EDF919E
:10147000CF911F910F910895D183C0832C173D0701
:1014800080F705C0D183C083C817D907B8F780910A
:1014900046019091470102960E940204CE010E94EB
:1014A0003D07DFCF0F931F93CF93DF938C01892BE1
:1014B00039F40E94D20EDF91CF911F910F910895C0
:1014C0000E94E608C0914F01D0915001C00FD11F7A
:1014D000809146019091470102960E940204CE013C
:1014E0000E943D070E94AA09882319F3E4CF809146
:1014F0005201811109C080917B01823010F00E945D
:10150000D20E0E94E20FF3CF0E94E608C091530171
:101510000E94AA09CC2359F30FB6F8940F92E091D8
:101520005801F0915901C681D781CE0102960E94DF
:1015300002048091510181508093510180915201A8
:101540008150809352010F900FBE8F89988D0E9419
:10155000BF0FCE010E94BF0FCACF809148018823E0
:1015600021F081E080934B01089510924B0149E0F6
:10157000E0914E014E9FF0011124E558FE4F80810D
:10158000882379F180914E0190E0489F9001499F16
:10159000300D1124F901E558FE4FA181B281129658
:1015A0000D90BC91A02DB283A18322583E4FA2176B
:1015B000B30729F412962D913C913283218329E0BF
:1015C000289FF001299FF00D1124E558FE4F01805E
:1015D000F281E02D868197819093470180934601A7
:1015E000089580914E01815080934E01C1CFCF93D9
:1015F000DF93EB016091460170914701645F7F4F7B
:101600000E94CC03809146019091470102960E946E
:10161000020480914F01909150018C0F9D1FDF912A
:10162000CF910C943D07CF93DF93EA01E0914601FF
:10163000F0914701706875876487609146017091E9
:101640004701645F7F4F0E94AC03809146019091F7
:10165000470102960E94020480914F01909150012F
:101660008C0F9D1FDF91CF910C943D070F931F931B
:10167000CF93DF93DC011596ED91FC91C681D78164
:101680008E01045F1F4FC8010E940204809148012F
:10169000811125C00A501109C8010E9402048E89D7
:1016A00090914E01981710F480934E01B9E08B9FF2
:1016B000C0011124B80185589E4F0E94AC03E091EF
:1016C0004601F09147019E898689891760F481E07F
:1016D00080934B01DF91CF911F910F910895B80135
:1016E0008CE591E0EACF80E0F5CF0F931F93CF9385
:1016F000DF937068FC0171836083C681D7810E948B
:1017000002048E010E5F1F4FC8010E9402048E89E1
:1017100090914E01981710F480934E01F9E08F9F3D
:10172000C0011124B80185589E4F0E94AC03E0917E
:101730004601F09147019E898689891740F481E02E
:1017400080934B01DF91CF911F910F91089580E01D
:10175000F9CF20914A01FC01208320914F01309163
:1017600050013283218308950FB6F8940F92E091CF
:101770004F01F091500120914A01DC0111964D91E9
:101780005C9112973C91321719F0E417F507B0F409
:10179000DB012D913C91DF01A41BB50BA217B30710
:1017A00068F42E1B3F0B240F351FFB013183208370
:1017B0000E94A90B80E00F900FBE089581E0FBCF3F
:1017C00081E080934B010895E0914601F09147013B
:1017D00084859585A0914601B0914701E09146012D
:1017E000F091470156964C9124E030E0241B3109DA
:1017F0003587248708951F93CF93DF93182FEB012C
:101800000FB6F8940F92E0914601F091470181A143
:1018100092A1A3A1B4A1892B8A2B8B2BD9F4E0919F
:101820004601F091470181E090E096A385A32097BF
:1018300089F0809146019091470102960E9402042E
:1018400080914F01909150018C0F9D1F0E943D0788
:101850000E94D20E0F900FBE0FB6F8940F92E09137
:101860004601F091470141A152A163A174A1411524
:1018700051056105710551F0E0914601F091470174
:10188000112391F011A212A213A214A2E091460119
:10189000F091470116A215A20F900FBECB01BA011D
:1018A000DF91CF911F91089581A192A1A3A1B4A12D
:1018B0000197A109B10981A392A3A3A3B4A3E6CF81
:1018C0004F925F926F927F928F929F92AF92BF9250
:1018D000EF92FF920F931F9349015A010FB6F894AC
:1018E0000F92E0914601F091470125A136A12230E7
:1018F000310581F1E0914601F091470141A052A0EC
:1019000063A074A0609570958095909546225722AB
:101910006822792241A252A263A274A2E0914601F8
:10192000F091470181E090E096A385A3E114F104D2
:1019300089F0809146019091470102960E9402042D
:1019400080914F01909150018E0D9F1D0E943D0787
:101950000E94D20E0F900FBE0FB6F8940F92011591
:10196000110569F0E0914601F091470181A192A132
:10197000A3A1B4A1F80180839183A283B383E091F2
:101980004601F091470185A196A1019751F1E0919F
:101990004601F091470181A192A1A3A1B4A1809435
:1019A0009094A094B09488219921AA21BB2181A36D
:1019B00092A3A3A3B4A381E0E0914601F091470173
:1019C00016A215A20F900FBE1F910F91FF90EF90DE
:1019D000BF90AF909F908F907F906F905F904F904F
:1019E000089580E0E9CF0F931F93CF93DF93EC012D
:1019F0000FB6F8940F92EDA1FEA182E090E09EA3B5
:101A00008DA32230310551F168F421303105C9F040
:101A1000319761F181E00F900FBEDF91CF911F915F
:101A20000F9108952330310539F02430310581F7C5
:101A300080E0E230F10579F349A35AA36BA37CA3BC
:101A4000E7CF89A19AA1ABA1BCA1842B952BA62B92
:101A5000B72B89A39AA3ABA3BCA3DACF89A19AA180
:101A6000ABA1BCA10196A11DB11DF3CF8E010E5FEC
:101A70001F4FC8010E9402048E8990914E01981751
:101A800010F480934E0129E0829FC0011124B80117
:101A900085589E4F0E94AC03E0914601F0914701AA
:101AA0009E898689891708F0B5CF0E94D20EB2CFE1
:101AB000EF92FF920F931F93CF93DF93EC01EDA171
:101AC000FEA182E090E09EA38DA32230310551F16A
:101AD00068F421303105C9F0319761F181E0DF917F
:101AE000CF911F910F91FF90EF9008952330310512
:101AF00039F02430310581F780E0E230F10579F3E7
:101B000049A35AA36BA37CA3E7CF89A19AA1ABA158
:101B1000BCA1842B952BA62BB72B89A39AA3ABA38F
:101B2000BCA3DACF89A19AA1ABA1BCA10196A11D4A
:101B3000B11DF3CF80914801811128C07E0122E0C0
:101B4000E20EF11CC7010E9402048E8990914E01A1
:101B5000981710F480934E01E9E08E9FC001112484
:101B6000B70185589E4F0E94AC03E0914601F09169
:101B700047019E898689891708F0B0CF01151105A4
:101B800009F4ACCF81E0F8018083A9CFBE01645F86
:101B90007F4F8CE591E0E7CFEF92FF920F931F9379
:101BA000CF93DF93EC018B012DA13EA182E090E069
:101BB0009EA38DA389A19AA1ABA1BCA10196A11D51
:101BC000B11D89A39AA3ABA3BCA32130310549F56C
:101BD0008091480181112CC07E0122E0E20EF11CAF
:101BE000C7010E9402048E8990914E01981710F44B
:101BF00080934E01E9E08E9FC0011124B701855802
:101C00009E4F0E94AC03E0914601F09147019E89EE
:101C10008689891730F40115110519F081E0F80162
:101C20008083DF91CF911F910F91FF90EF900895E6
:101C3000BE01645F7F4F8CE591E0E3CF259A089564
:101C400085B190E2892785B9089531E1FC0130839F
:101C5000319722E220833197A3E3A08331976083F9
:101C60003197708331971082319760E860833197A4
:101C70001082319762E06083319763E0608331972F
:101C800064E06083319765E06083319766E060834C
:101C9000319767E06083319768E06083319769E04E
:101CA0006083319760E1608331973083319732E10F
:101CB0003083319733E13083319734E1308331978A
:101CC00035E13083319736E13083319737E1308326
:101CD000319738E13083319739E13083319730E201
:101CE0003083319731E2308331972083319723E27B
:101CF00020833197408331975083319726E22083A8
:101D0000319727E22083319728E22083319729E217
:101D10002083319720E32083319721E32083869726
:101D200008958CE790E09093890080938800E0E824
:101D3000F0E080818C7F80838BE080938100EFE6F0
:101D4000F0E0808182608083A0914601B0914701DC
:101D5000CD91CDBFDD91DEBFFF91EF91DF91CF91AE
:101D6000BF91AF919F918F917F916F915F914F91B3
:101D70003F912F911F910F91FF90EF90DF90CF90A7
:101D8000BF90AF909F908F907F906F905F904F909B
:101D90003F902F901F900F900FBE0F90089581E0FD
:101DA000089508950F920FB6F8940F921F92112480
:101DB0002F923F924F925F926F927F928F929F925B
:101DC000AF92BF92CF92DF92EF92FF920F931F9349
:101DD0002F933F934F935F936F937F938F939F9333
:101DE000AF93BF93CF93DF93EF93FF93A0914601FF
:101DF000B09147010DB60D920EB60D920E94AD0A3C
:101E0000A0914601B0914701CD91CDBFDD91DEBFDC
:101E1000FF91EF91DF91CF91BF91AF919F918F9102
:101E20007F916F915F914F913F912F911F910F91F2
:101E3000FF90EF90DF90CF90BF90AF909F908F90EA
:101E40007F906F905F904F903F902F901F900F90DA
:101E50000FBE0F9008950F920FB6F8940F921F9235
:101E600011242F923F924F925F926F927F928F92A6
:101E70009F92AF92BF92CF92DF92EF92FF920F9319
:101E80001F932F933F934F935F936F937F938F9302
:101E90009F93AF93BF93CF93DF93EF93FF93A09163
:101EA0004601B09147010DB60D920EB60D920E94FB
:101EB000FE0881110E94AD0AA0914601B091470130
:101EC000CD91CDBFDD91DEBFFF91EF91DF91CF913D
:101ED000BF91AF919F918F917F916F915F914F9142
:101EE0003F912F911F910F91FF90EF90DF90CF9036
:101EF000BF90AF909F908F907F906F905F904F902A
:101F00003F902F901F900F900FBE0F9008950E944A
:101F10002B0F18950F931F93CF93DF938C010E9483
:101F2000E60880919F019091A001892B31F484EA09
:101F300091E09093A00180939F012091A1013091A5
:101F4000A201020F131F0B3D85E01807A8F420170C
:101F5000310790F4C0919F01D091A001C20FD31F0F
:101F60001093A2010093A1010E94AA09CE01DF9162
:101F7000CF911F910F910895D0E0C0E0F5CF089563
:101F80001092A2011092A10108952091A101309117
:101F9000A2018BED95E0821B930B0895CF93DF9305
:101FA00000D0CDB7DEB70E941E0E0E94EC089A83C7
:101FB00089830E94200E68EE73E0CE0101960E9494
:101FC000180AF7CF0895B12CA12CD12CC12CF12CDB
:101FD000E12C01E030E020E045E550E067E071E011
:101FE0008EEC9FE00E9471070E94AF0890E080E0B5
:101FF0000895FB01DC0102C001900D924150504058
:08200000D8F70895F894FFCF12
:0C200800FFFF49444C45004C45440000DB
:00000001FF
